{
  "_format": "hh-sol-artifact-1",
  "contractName": "DegenToken",
  "sourceName": "contracts/DegenToken.sol",
  "abi": [
    {
      "inputs": [],
      "stateMutability": "nonpayable",
      "type": "constructor"
    },
    {
      "anonymous": false,
      "inputs": [
        {
          "indexed": true,
          "internalType": "address",
          "name": "owner",
          "type": "address"
        },
        {
          "indexed": true,
          "internalType": "address",
          "name": "spender",
          "type": "address"
        },
        {
          "indexed": false,
          "internalType": "uint256",
          "name": "value",
          "type": "uint256"
        }
      ],
      "name": "Approval",
      "type": "event"
    },
    {
      "anonymous": false,
      "inputs": [
        {
          "indexed": true,
          "internalType": "address",
          "name": "previousOwner",
          "type": "address"
        },
        {
          "indexed": true,
          "internalType": "address",
          "name": "newOwner",
          "type": "address"
        }
      ],
      "name": "OwnershipTransferred",
      "type": "event"
    },
    {
      "anonymous": false,
      "inputs": [
        {
          "indexed": false,
          "internalType": "address",
          "name": "user",
          "type": "address"
        },
        {
          "indexed": false,
          "internalType": "string",
          "name": "item",
          "type": "string"
        }
      ],
      "name": "Redeem",
      "type": "event"
    },
    {
      "anonymous": false,
      "inputs": [
        {
          "indexed": true,
          "internalType": "address",
          "name": "from",
          "type": "address"
        },
        {
          "indexed": true,
          "internalType": "address",
          "name": "to",
          "type": "address"
        },
        {
          "indexed": false,
          "internalType": "uint256",
          "name": "value",
          "type": "uint256"
        }
      ],
      "name": "Transfer",
      "type": "event"
    },
    {
      "inputs": [
        {
          "internalType": "address",
          "name": "owner",
          "type": "address"
        },
        {
          "internalType": "address",
          "name": "spender",
          "type": "address"
        }
      ],
      "name": "allowance",
      "outputs": [
        {
          "internalType": "uint256",
          "name": "",
          "type": "uint256"
        }
      ],
      "stateMutability": "view",
      "type": "function"
    },
    {
      "inputs": [
        {
          "internalType": "address",
          "name": "spender",
          "type": "address"
        },
        {
          "internalType": "uint256",
          "name": "amount",
          "type": "uint256"
        }
      ],
      "name": "approve",
      "outputs": [
        {
          "internalType": "bool",
          "name": "",
          "type": "bool"
        }
      ],
      "stateMutability": "nonpayable",
      "type": "function"
    },
    {
      "inputs": [
        {
          "internalType": "address",
          "name": "account",
          "type": "address"
        }
      ],
      "name": "balanceOf",
      "outputs": [
        {
          "internalType": "uint256",
          "name": "",
          "type": "uint256"
        }
      ],
      "stateMutability": "view",
      "type": "function"
    },
    {
      "inputs": [
        {
          "internalType": "uint256",
          "name": "amount",
          "type": "uint256"
        }
      ],
      "name": "burnDGN",
      "outputs": [],
      "stateMutability": "nonpayable",
      "type": "function"
    },
    {
      "inputs": [],
      "name": "decimals",
      "outputs": [
        {
          "internalType": "uint8",
          "name": "",
          "type": "uint8"
        }
      ],
      "stateMutability": "view",
      "type": "function"
    },
    {
      "inputs": [
        {
          "internalType": "address",
          "name": "spender",
          "type": "address"
        },
        {
          "internalType": "uint256",
          "name": "subtractedValue",
          "type": "uint256"
        }
      ],
      "name": "decreaseAllowance",
      "outputs": [
        {
          "internalType": "bool",
          "name": "",
          "type": "bool"
        }
      ],
      "stateMutability": "nonpayable",
      "type": "function"
    },
    {
      "inputs": [],
      "name": "getDGNBalance",
      "outputs": [
        {
          "internalType": "uint256",
          "name": "",
          "type": "uint256"
        }
      ],
      "stateMutability": "view",
      "type": "function"
    },
    {
      "inputs": [],
      "name": "getStoreItems",
      "outputs": [
        {
          "internalType": "string",
          "name": "",
          "type": "string"
        }
      ],
      "stateMutability": "pure",
      "type": "function"
    },
    {
      "inputs": [
        {
          "internalType": "address",
          "name": "spender",
          "type": "address"
        },
        {
          "internalType": "uint256",
          "name": "addedValue",
          "type": "uint256"
        }
      ],
      "name": "increaseAllowance",
      "outputs": [
        {
          "internalType": "bool",
          "name": "",
          "type": "bool"
        }
      ],
      "stateMutability": "nonpayable",
      "type": "function"
    },
    {
      "inputs": [
        {
          "internalType": "address",
          "name": "to",
          "type": "address"
        },
        {
          "internalType": "uint256",
          "name": "amount",
          "type": "uint256"
        }
      ],
      "name": "mintDGN",
      "outputs": [],
      "stateMutability": "nonpayable",
      "type": "function"
    },
    {
      "inputs": [],
      "name": "name",
      "outputs": [
        {
          "internalType": "string",
          "name": "",
          "type": "string"
        }
      ],
      "stateMutability": "view",
      "type": "function"
    },
    {
      "inputs": [],
      "name": "owner",
      "outputs": [
        {
          "internalType": "address",
          "name": "",
          "type": "address"
        }
      ],
      "stateMutability": "view",
      "type": "function"
    },
    {
      "inputs": [
        {
          "internalType": "uint256",
          "name": "item",
          "type": "uint256"
        }
      ],
      "name": "redeemDGN",
      "outputs": [],
      "stateMutability": "nonpayable",
      "type": "function"
    },
    {
      "inputs": [],
      "name": "renounceOwnership",
      "outputs": [],
      "stateMutability": "nonpayable",
      "type": "function"
    },
    {
      "inputs": [],
      "name": "symbol",
      "outputs": [
        {
          "internalType": "string",
          "name": "",
          "type": "string"
        }
      ],
      "stateMutability": "view",
      "type": "function"
    },
    {
      "inputs": [],
      "name": "totalSupply",
      "outputs": [
        {
          "internalType": "uint256",
          "name": "",
          "type": "uint256"
        }
      ],
      "stateMutability": "view",
      "type": "function"
    },
    {
      "inputs": [
        {
          "internalType": "address",
          "name": "to",
          "type": "address"
        },
        {
          "internalType": "uint256",
          "name": "amount",
          "type": "uint256"
        }
      ],
      "name": "transfer",
      "outputs": [
        {
          "internalType": "bool",
          "name": "",
          "type": "bool"
        }
      ],
      "stateMutability": "nonpayable",
      "type": "function"
    },
    {
      "inputs": [
        {
          "internalType": "address",
          "name": "to",
          "type": "address"
        },
        {
          "internalType": "uint256",
          "name": "amount",
          "type": "uint256"
        }
      ],
      "name": "transferDGN",
      "outputs": [],
      "stateMutability": "nonpayable",
      "type": "function"
    },
    {
      "inputs": [
        {
          "internalType": "address",
          "name": "from",
          "type": "address"
        },
        {
          "internalType": "address",
          "name": "to",
          "type": "address"
        },
        {
          "internalType": "uint256",
          "name": "amount",
          "type": "uint256"
        }
      ],
      "name": "transferFrom",
      "outputs": [
        {
          "internalType": "bool",
          "name": "",
          "type": "bool"
        }
      ],
      "stateMutability": "nonpayable",
      "type": "function"
    },
    {
      "inputs": [
        {
          "internalType": "address",
          "name": "newOwner",
          "type": "address"
        }
      ],
      "name": "transferOwnership",
      "outputs": [],
      "stateMutability": "nonpayable",
      "type": "function"
    }
  ],
  "bytecode": "0x60806040523480156200001157600080fd5b506040518060400160405280600581526020017f446567656e0000000000000000000000000000000000000000000000000000008152506040518060400160405280600381526020017f44474e000000000000000000000000000000000000000000000000000000000081525081600390816200008f919062000412565b508060049081620000a1919062000412565b505050620000c4620000b8620000ca60201b60201c565b620000d260201b60201c565b620004f9565b600033905090565b6000600560009054906101000a900473ffffffffffffffffffffffffffffffffffffffff16905081600560006101000a81548173ffffffffffffffffffffffffffffffffffffffff021916908373ffffffffffffffffffffffffffffffffffffffff1602179055508173ffffffffffffffffffffffffffffffffffffffff168173ffffffffffffffffffffffffffffffffffffffff167f8be0079c531659141344cd1fd0a4f28419497f9722a3daafe3b4186f6b6457e060405160405180910390a35050565b600081519050919050565b7f4e487b7100000000000000000000000000000000000000000000000000000000600052604160045260246000fd5b7f4e487b7100000000000000000000000000000000000000000000000000000000600052602260045260246000fd5b600060028204905060018216806200021a57607f821691505b60208210810362000230576200022f620001d2565b5b50919050565b60008190508160005260206000209050919050565b60006020601f8301049050919050565b600082821b905092915050565b6000600883026200029a7fffffffffffffffffffffffffffffffffffffffffffffffffffffffffffffffff826200025b565b620002a686836200025b565b95508019841693508086168417925050509392505050565b6000819050919050565b6000819050919050565b6000620002f3620002ed620002e784620002be565b620002c8565b620002be565b9050919050565b6000819050919050565b6200030f83620002d2565b620003276200031e82620002fa565b84845462000268565b825550505050565b600090565b6200033e6200032f565b6200034b81848462000304565b505050565b5b8181101562000373576200036760008262000334565b60018101905062000351565b5050565b601f821115620003c2576200038c8162000236565b62000397846200024b565b81016020851015620003a7578190505b620003bf620003b6856200024b565b83018262000350565b50505b505050565b600082821c905092915050565b6000620003e760001984600802620003c7565b1980831691505092915050565b6000620004028383620003d4565b9150826002028217905092915050565b6200041d8262000198565b67ffffffffffffffff811115620004395762000438620001a3565b5b62000445825462000201565b6200045282828562000377565b600060209050601f8311600181146200048a576000841562000475578287015190505b620004818582620003f4565b865550620004f1565b601f1984166200049a8662000236565b60005b82811015620004c4578489015182556001820191506020850194506020810190506200049d565b86831015620004e45784890151620004e0601f891682620003d4565b8355505b6001600288020188555050505b505050505050565b6123b580620005096000396000f3fe608060405234801561001057600080fd5b506004361061012c5760003560e01c8063715018a6116100ad578063a457c2d711610071578063a457c2d714610321578063a9059cbb14610351578063aa08a35f14610381578063dd62ed3e1461039d578063f2fde38b146103cd5761012c565b8063715018a6146102a1578063730e14b0146102ab5780638aba72ae146102c95780638da5cb5b146102e557806395d89b41146103035761012c565b8063313ce567116100f4578063313ce567146101eb57806339509351146102095780634f53e2951461023957806370a08231146102555780637102170e146102855761012c565b806306fdde0314610131578063095ea7b31461014f57806318160ddd1461017f57806323b872dd1461019d5780632d9088bd146101cd575b600080fd5b6101396103e9565b6040516101469190611463565b60405180910390f35b6101696004803603810190610164919061151e565b61047b565b6040516101769190611579565b60405180910390f35b61018761049e565b60405161019491906115a3565b60405180910390f35b6101b760048036038101906101b291906115be565b6104a8565b6040516101c49190611579565b60405180910390f35b6101d56104d7565b6040516101e29190611463565b60405180910390f35b6101f36104f7565b604051610200919061162d565b60405180910390f35b610223600480360381019061021e919061151e565b610500565b6040516102309190611579565b60405180910390f35b610253600480360381019061024e919061151e565b610537565b005b61026f600480360381019061026a9190611648565b610555565b60405161027c91906115a3565b60405180910390f35b61029f600480360381019061029a9190611675565b61059d565b005b6102a9610703565b005b6102b3610717565b6040516102c091906115a3565b60405180910390f35b6102e360048036038101906102de919061151e565b610745565b005b6102ed6107a7565b6040516102fa91906116b1565b60405180910390f35b61030b6107d1565b6040516103189190611463565b60405180910390f35b61033b6004803603810190610336919061151e565b610863565b6040516103489190611579565b60405180910390f35b61036b6004803603810190610366919061151e565b6108da565b6040516103789190611579565b60405180910390f35b61039b60048036038101906103969190611675565b6108fd565b005b6103b760048036038101906103b291906116cc565b61095d565b6040516103c491906115a3565b60405180910390f35b6103e760048036038101906103e29190611648565b6109e4565b005b6060600380546103f89061173b565b80601f01602080910402602001604051908101604052809291908181526020018280546104249061173b565b80156104715780601f1061044657610100808354040283529160200191610471565b820191906000526020600020905b81548152906001019060200180831161045457829003601f168201915b5050505050905090565b600080610486610a67565b9050610493818585610a6f565b600191505092915050565b6000600254905090565b6000806104b3610a67565b90506104c0858285610c38565b6104cb858585610cc4565b60019150509392505050565b60606040518060600160405280603a8152602001612346603a9139905090565b60006012905090565b60008061050b610a67565b905061052c81858561051d858961095d565b610527919061179b565b610a6f565b600191505092915050565b61053f610f3a565b6105518261054c83610fb8565b610fe0565b5050565b60008060008373ffffffffffffffffffffffffffffffffffffffff1673ffffffffffffffffffffffffffffffffffffffff168152602001908152602001600020549050919050565b60018103610650576105af6032610fb8565b6105b833610555565b10156105f9576040517f08c379a00000000000000000000000000000000000000000000000000000000081526004016105f090611841565b60405180910390fd5b6106136106046107a7565b61060e6032610fb8565b6108da565b507fd373081396e8af141d133ebc58f4fa1a6edbd9b809ce3f6df4c559d48c57eee03360405161064391906118ad565b60405180910390a1610700565b600281036106ff5761066260c8610fb8565b61066b33610555565b10156106ac576040517f08c379a00000000000000000000000000000000000000000000000000000000081526004016106a39061194d565b60405180910390fd5b6106c66106b76107a7565b6106c160c8610fb8565b6108da565b507fd373081396e8af141d133ebc58f4fa1a6edbd9b809ce3f6df4c559d48c57eee0336040516106f691906119b9565b60405180910390a15b5b50565b61070b610f3a565b6107156000611136565b565b60006107216104f7565b600a61072d9190611b1a565b61073633610555565b6107409190611b94565b905090565b8061074f33610555565b1015610790576040517f08c379a000000000000000000000000000000000000000000000000000000000815260040161078790611c11565b60405180910390fd5b6107a28261079d83610fb8565b6108da565b505050565b6000600560009054906101000a900473ffffffffffffffffffffffffffffffffffffffff16905090565b6060600480546107e09061173b565b80601f016020809104026020016040519081016040528092919081815260200182805461080c9061173b565b80156108595780601f1061082e57610100808354040283529160200191610859565b820191906000526020600020905b81548152906001019060200180831161083c57829003601f168201915b5050505050905090565b60008061086e610a67565b9050600061087c828661095d565b9050838110156108c1576040517f08c379a00000000000000000000000000000000000000000000000000000000081526004016108b890611ca3565b60405180910390fd5b6108ce8286868403610a6f565b60019250505092915050565b6000806108e5610a67565b90506108f2818585610cc4565b600191505092915050565b8061090733610555565b1015610948576040517f08c379a000000000000000000000000000000000000000000000000000000000815260040161093f90611d0f565b60405180910390fd5b61095a3361095583610fb8565b6111fc565b50565b6000600160008473ffffffffffffffffffffffffffffffffffffffff1673ffffffffffffffffffffffffffffffffffffffff16815260200190815260200160002060008373ffffffffffffffffffffffffffffffffffffffff1673ffffffffffffffffffffffffffffffffffffffff16815260200190815260200160002054905092915050565b6109ec610f3a565b600073ffffffffffffffffffffffffffffffffffffffff168173ffffffffffffffffffffffffffffffffffffffff1603610a5b576040517f08c379a0000000000000000000000000000000000000000000000000000000008152600401610a5290611da1565b60405180910390fd5b610a6481611136565b50565b600033905090565b600073ffffffffffffffffffffffffffffffffffffffff168373ffffffffffffffffffffffffffffffffffffffff1603610ade576040517f08c379a0000000000000000000000000000000000000000000000000000000008152600401610ad590611e33565b60405180910390fd5b600073ffffffffffffffffffffffffffffffffffffffff168273ffffffffffffffffffffffffffffffffffffffff1603610b4d576040517f08c379a0000000000000000000000000000000000000000000000000000000008152600401610b4490611ec5565b60405180910390fd5b80600160008573ffffffffffffffffffffffffffffffffffffffff1673ffffffffffffffffffffffffffffffffffffffff16815260200190815260200160002060008473ffffffffffffffffffffffffffffffffffffffff1673ffffffffffffffffffffffffffffffffffffffff168152602001908152602001600020819055508173ffffffffffffffffffffffffffffffffffffffff168373ffffffffffffffffffffffffffffffffffffffff167f8c5be1e5ebec7d5bd14f71427d1e84f3dd0314c0f7b2291e5b200ac8c7c3b92583604051610c2b91906115a3565b60405180910390a3505050565b6000610c44848461095d565b90507fffffffffffffffffffffffffffffffffffffffffffffffffffffffffffffffff8114610cbe5781811015610cb0576040517f08c379a0000000000000000000000000000000000000000000000000000000008152600401610ca790611f31565b60405180910390fd5b610cbd8484848403610a6f565b5b50505050565b600073ffffffffffffffffffffffffffffffffffffffff168373ffffffffffffffffffffffffffffffffffffffff1603610d33576040517f08c379a0000000000000000000000000000000000000000000000000000000008152600401610d2a90611fc3565b60405180910390fd5b600073ffffffffffffffffffffffffffffffffffffffff168273ffffffffffffffffffffffffffffffffffffffff1603610da2576040517f08c379a0000000000000000000000000000000000000000000000000000000008152600401610d9990612055565b60405180910390fd5b610dad8383836113c9565b60008060008573ffffffffffffffffffffffffffffffffffffffff1673ffffffffffffffffffffffffffffffffffffffff16815260200190815260200160002054905081811015610e33576040517f08c379a0000000000000000000000000000000000000000000000000000000008152600401610e2a906120e7565b60405180910390fd5b8181036000808673ffffffffffffffffffffffffffffffffffffffff1673ffffffffffffffffffffffffffffffffffffffff16815260200190815260200160002081905550816000808573ffffffffffffffffffffffffffffffffffffffff1673ffffffffffffffffffffffffffffffffffffffff168152602001908152602001600020600082825401925050819055508273ffffffffffffffffffffffffffffffffffffffff168473ffffffffffffffffffffffffffffffffffffffff167fddf252ad1be2c89b69c2b068fc378daa952ba7f163c4a11628f55a4df523b3ef84604051610f2191906115a3565b60405180910390a3610f348484846113ce565b50505050565b610f42610a67565b73ffffffffffffffffffffffffffffffffffffffff16610f606107a7565b73ffffffffffffffffffffffffffffffffffffffff1614610fb6576040517f08c379a0000000000000000000000000000000000000000000000000000000008152600401610fad90612153565b60405180910390fd5b565b6000610fc26104f7565b600a610fce9190611b1a565b82610fd99190612173565b9050919050565b600073ffffffffffffffffffffffffffffffffffffffff168273ffffffffffffffffffffffffffffffffffffffff160361104f576040517f08c379a000000000000000000000000000000000000000000000000000000000815260040161104690612201565b60405180910390fd5b61105b600083836113c9565b806002600082825461106d919061179b565b92505081905550806000808473ffffffffffffffffffffffffffffffffffffffff1673ffffffffffffffffffffffffffffffffffffffff168152602001908152602001600020600082825401925050819055508173ffffffffffffffffffffffffffffffffffffffff16600073ffffffffffffffffffffffffffffffffffffffff167fddf252ad1be2c89b69c2b068fc378daa952ba7f163c4a11628f55a4df523b3ef8360405161111e91906115a3565b60405180910390a3611132600083836113ce565b5050565b6000600560009054906101000a900473ffffffffffffffffffffffffffffffffffffffff16905081600560006101000a81548173ffffffffffffffffffffffffffffffffffffffff021916908373ffffffffffffffffffffffffffffffffffffffff1602179055508173ffffffffffffffffffffffffffffffffffffffff168173ffffffffffffffffffffffffffffffffffffffff167f8be0079c531659141344cd1fd0a4f28419497f9722a3daafe3b4186f6b6457e060405160405180910390a35050565b600073ffffffffffffffffffffffffffffffffffffffff168273ffffffffffffffffffffffffffffffffffffffff160361126b576040517f08c379a000000000000000000000000000000000000000000000000000000000815260040161126290612293565b60405180910390fd5b611277826000836113c9565b60008060008473ffffffffffffffffffffffffffffffffffffffff1673ffffffffffffffffffffffffffffffffffffffff168152602001908152602001600020549050818110156112fd576040517f08c379a00000000000000000000000000000000000000000000000000000000081526004016112f490612325565b60405180910390fd5b8181036000808573ffffffffffffffffffffffffffffffffffffffff1673ffffffffffffffffffffffffffffffffffffffff1681526020019081526020016000208190555081600260008282540392505081905550600073ffffffffffffffffffffffffffffffffffffffff168373ffffffffffffffffffffffffffffffffffffffff167fddf252ad1be2c89b69c2b068fc378daa952ba7f163c4a11628f55a4df523b3ef846040516113b091906115a3565b60405180910390a36113c4836000846113ce565b505050565b505050565b505050565b600081519050919050565b600082825260208201905092915050565b60005b8381101561140d5780820151818401526020810190506113f2565b60008484015250505050565b6000601f19601f8301169050919050565b6000611435826113d3565b61143f81856113de565b935061144f8185602086016113ef565b61145881611419565b840191505092915050565b6000602082019050818103600083015261147d818461142a565b905092915050565b600080fd5b600073ffffffffffffffffffffffffffffffffffffffff82169050919050565b60006114b58261148a565b9050919050565b6114c5816114aa565b81146114d057600080fd5b50565b6000813590506114e2816114bc565b92915050565b6000819050919050565b6114fb816114e8565b811461150657600080fd5b50565b600081359050611518816114f2565b92915050565b6000806040838503121561153557611534611485565b5b6000611543858286016114d3565b925050602061155485828601611509565b9150509250929050565b60008115159050919050565b6115738161155e565b82525050565b600060208201905061158e600083018461156a565b92915050565b61159d816114e8565b82525050565b60006020820190506115b86000830184611594565b92915050565b6000806000606084860312156115d7576115d6611485565b5b60006115e5868287016114d3565b93505060206115f6868287016114d3565b925050604061160786828701611509565b9150509250925092565b600060ff82169050919050565b61162781611611565b82525050565b6000602082019050611642600083018461161e565b92915050565b60006020828403121561165e5761165d611485565b5b600061166c848285016114d3565b91505092915050565b60006020828403121561168b5761168a611485565b5b600061169984828501611509565b91505092915050565b6116ab816114aa565b82525050565b60006020820190506116c660008301846116a2565b92915050565b600080604083850312156116e3576116e2611485565b5b60006116f1858286016114d3565b9250506020611702858286016114d3565b9150509250929050565b7f4e487b7100000000000000000000000000000000000000000000000000000000600052602260045260246000fd5b6000600282049050600182168061175357607f821691505b6020821081036117665761176561170c565b5b50919050565b7f4e487b7100000000000000000000000000000000000000000000000000000000600052601160045260246000fd5b60006117a6826114e8565b91506117b1836114e8565b92508282019050808211156117c9576117c861176c565b5b92915050565b7f4e6f7420656e6f7567682062616c616e636520746f2072656465656d2072616e60008201527f646f6d20636f7374756d652e0000000000000000000000000000000000000000602082015250565b600061182b602c836113de565b9150611836826117cf565b604082019050919050565b6000602082019050818103600083015261185a8161181e565b9050919050565b7f72616e646f6d20636f7374756d65000000000000000000000000000000000000600082015250565b6000611897600e836113de565b91506118a282611861565b602082019050919050565b60006040820190506118c260008301846116a2565b81810360208301526118d38161188a565b905092915050565b7f4e6f7420656e6f7567682062616c616e636520746f2072656465656d2073706560008201527f6369616c20776561706f6e2e0000000000000000000000000000000000000000602082015250565b6000611937602c836113de565b9150611942826118db565b604082019050919050565b600060208201905081810360008301526119668161192a565b9050919050565b7f7370656369616c20776561706f6e000000000000000000000000000000000000600082015250565b60006119a3600e836113de565b91506119ae8261196d565b602082019050919050565b60006040820190506119ce60008301846116a2565b81810360208301526119df81611996565b905092915050565b60008160011c9050919050565b6000808291508390505b6001851115611a3e57808604811115611a1a57611a1961176c565b5b6001851615611a295780820291505b8081029050611a37856119e7565b94506119fe565b94509492505050565b600082611a575760019050611b13565b81611a655760009050611b13565b8160018114611a7b5760028114611a8557611ab4565b6001915050611b13565b60ff841115611a9757611a9661176c565b5b8360020a915084821115611aae57611aad61176c565b5b50611b13565b5060208310610133831016604e8410600b8410161715611ae95782820a905083811115611ae457611ae361176c565b5b611b13565b611af684848460016119f4565b92509050818404811115611b0d57611b0c61176c565b5b81810290505b9392505050565b6000611b25826114e8565b9150611b3083611611565b9250611b5d7fffffffffffffffffffffffffffffffffffffffffffffffffffffffffffffffff8484611a47565b905092915050565b7f4e487b7100000000000000000000000000000000000000000000000000000000600052601260045260246000fd5b6000611b9f826114e8565b9150611baa836114e8565b925082611bba57611bb9611b65565b5b828204905092915050565b7f4e6f7420656e6f7567682062616c616e636520746f207472616e736665722e00600082015250565b6000611bfb601f836113de565b9150611c0682611bc5565b602082019050919050565b60006020820190508181036000830152611c2a81611bee565b9050919050565b7f45524332303a2064656372656173656420616c6c6f77616e63652062656c6f7760008201527f207a65726f000000000000000000000000000000000000000000000000000000602082015250565b6000611c8d6025836113de565b9150611c9882611c31565b604082019050919050565b60006020820190508181036000830152611cbc81611c80565b9050919050565b7f4e6f7420656e6f7567682062616c616e636520746f206275726e2e0000000000600082015250565b6000611cf9601b836113de565b9150611d0482611cc3565b602082019050919050565b60006020820190508181036000830152611d2881611cec565b9050919050565b7f4f776e61626c653a206e6577206f776e657220697320746865207a65726f206160008201527f6464726573730000000000000000000000000000000000000000000000000000602082015250565b6000611d8b6026836113de565b9150611d9682611d2f565b604082019050919050565b60006020820190508181036000830152611dba81611d7e565b9050919050565b7f45524332303a20617070726f76652066726f6d20746865207a65726f2061646460008201527f7265737300000000000000000000000000000000000000000000000000000000602082015250565b6000611e1d6024836113de565b9150611e2882611dc1565b604082019050919050565b60006020820190508181036000830152611e4c81611e10565b9050919050565b7f45524332303a20617070726f766520746f20746865207a65726f20616464726560008201527f7373000000000000000000000000000000000000000000000000000000000000602082015250565b6000611eaf6022836113de565b9150611eba82611e53565b604082019050919050565b60006020820190508181036000830152611ede81611ea2565b9050919050565b7f45524332303a20696e73756666696369656e7420616c6c6f77616e6365000000600082015250565b6000611f1b601d836113de565b9150611f2682611ee5565b602082019050919050565b60006020820190508181036000830152611f4a81611f0e565b9050919050565b7f45524332303a207472616e736665722066726f6d20746865207a65726f20616460008201527f6472657373000000000000000000000000000000000000000000000000000000602082015250565b6000611fad6025836113de565b9150611fb882611f51565b604082019050919050565b60006020820190508181036000830152611fdc81611fa0565b9050919050565b7f45524332303a207472616e7366657220746f20746865207a65726f206164647260008201527f6573730000000000000000000000000000000000000000000000000000000000602082015250565b600061203f6023836113de565b915061204a82611fe3565b604082019050919050565b6000602082019050818103600083015261206e81612032565b9050919050565b7f45524332303a207472616e7366657220616d6f756e742065786365656473206260008201527f616c616e63650000000000000000000000000000000000000000000000000000602082015250565b60006120d16026836113de565b91506120dc82612075565b604082019050919050565b60006020820190508181036000830152612100816120c4565b9050919050565b7f4f776e61626c653a2063616c6c6572206973206e6f7420746865206f776e6572600082015250565b600061213d6020836113de565b915061214882612107565b602082019050919050565b6000602082019050818103600083015261216c81612130565b9050919050565b600061217e826114e8565b9150612189836114e8565b9250828202612197816114e8565b915082820484148315176121ae576121ad61176c565b5b5092915050565b7f45524332303a206d696e7420746f20746865207a65726f206164647265737300600082015250565b60006121eb601f836113de565b91506121f6826121b5565b602082019050919050565b6000602082019050818103600083015261221a816121de565b9050919050565b7f45524332303a206275726e2066726f6d20746865207a65726f2061646472657360008201527f7300000000000000000000000000000000000000000000000000000000000000602082015250565b600061227d6021836113de565b915061228882612221565b604082019050919050565b600060208201905081810360008301526122ac81612270565b9050919050565b7f45524332303a206275726e20616d6f756e7420657863656564732062616c616e60008201527f6365000000000000000000000000000000000000000000000000000000000000602082015250565b600061230f6022836113de565b915061231a826122b3565b604082019050919050565b6000602082019050818103600083015261233e81612302565b905091905056fe313a2052616e646f6d20636f7374756d65202d2035302044474e20207c2020323a205370656369616c20776561706f6e202d203230302044474ea264697066735822122037d01bc49e9c41ef4f93257545a3acff67e305c36b145722728b578c90768c3a64736f6c63430008120033",
  "linkReferences": {},
  "deployedLinkReferences": {}
}